:020000040000FA
:10000000C8310020A1010000B3010000B5010000CB
:10001000B7010000B9010000BB01000000000000B2
:10002000000000000000000000000000BD01000012
:10003000BF01000000000000C1010000C30100007A
:10004000C5010000C5010000C5010000C501000098
:10005000513A0000C5010000C5010000C5010000C3
:10006000C5010000C5010000C5010000C501000078
:10007000C5010000C5010000C5480000C501000021
:10008000C5010000C5010000C5010000C501000058
:10009000C5010000C50100000000000000000000D4
:1000A000C5010000C50100000000000000000000C4
:1000B000C5010000C5010000C5010000C501000028
:1000C000C5010000C5010000C5010000C501000018
:1000D0000000000000000000C5010000C501000094
:1000E000C50100000000000000000000C501000084
:1000F000C501000000000000C5010000C5010000AE
:10010000C5010000C5010000C5010000C5010000D7
:10011000C5010000C5010000C5010000C5010000C7
:10012000C5010000C5010000C5010000C5010000B7
:10013000C5010000C5010000C5010000C5010000A7
:1001400000000000DFF810D000F0BEFF00480047BC
:10015000095F0000AFF30080C8310020202A04DBD3
:10016000203A00FA02F1002070479140C2F12003CA
:1001700020FA03F31943904070470146088A7047FC
:10018000FFFFFFFFFFFFFFFFFFFFFFFFFFFFFFFF7F
:1001900003329CA700000000FFFFFFFFFFFFFFFFEF
:1001A0000949086820F0004008600848804708486E
:1001B0000047FEE7FEE7FEE7FEE7FEE7FEE7FEE7B5
:1001C000FEE7FEE7FEE7000060C204409148000041
:1001D000450100002DE9F05F0546002092469B4650
:1001E00088460646814640241BE02846414647464D
:1001F000224600F0B9FD53465A46C01A914110D329
:10020000114618462246FFF7A9FF2D1A67EB010891
:100210004F46224601200021FFF7A0FF17EB0009FF
:100220004E41201EA4F10104DFDC484631462A4637
:100230004346BDE8F09FA0F14101192900D82030C4
:10024000704740EA01039B0703D009E008C9121F69
:1002500008C0042AFAD203E011F8013B00F8013B80
:10026000521EF9D27047D2B201E000F8012B491EAC
:10027000FBD270470022F6E710B513460A46044643
:100280001946FFF7F0FF204610BD421C10F8011B75
:100290000029FBD1801A704710B5002200E0521CE3
:1002A000835C8C5CA34201D1002BF8D1D8B2E1B2BF
:1002B000401A10BD10B5044600E0401C0378002B26
:1002C000FBD100E0401C521E04D311F8013B037027
:1002D000002BF7D100210170204610BD30B5054636
:1002E0000020034600E05B1C934205D2EC5CC85C36
:1002F000201A01D1002CF6D130BD00002DE9FF4FAE
:10030000087883B09946FF2805D0491C2D2804D0D1
:100310000024002008E000200BE00124F9E700EBB6
:10032000800003EB4000491C0B78FF2BF7D104B190
:10033000404200230293147819461D462D2C01D00B
:100340002B2C04D1521C2D2C13D000240294AA462D
:100350001478FF2C0FD00A25A3FB057801FB05813B
:100360004FF0000C03FB0C11521CE3194AEB010186
:10037000EEE70124EAE7814453EA010002D019F5CF
:10038000C87F06DA03980021C0E9001107B0BDE874
:10039000F08F0025AE4E2F46DFF8B882184600F0E9
:1003A0006FFECDE90001B9F1000002DAC9F10004E5
:1003B00000E004460023A74A1AEB030B42EB045A61
:1003C00012E0E00707D02A4633463846414600F09F
:1003D000BEFA074688462A4633461046194600F0BC
:1003E000B6FA05460E466410002CEAD1DDE900019C
:1003F000B9F1000F5A46534606DA00F01AFB3A46A6
:10040000434600F016FB05E000F0A1FA3A464346E9
:1004100000F09DFA029A0AB181F00041039AC2E904
:100420000001B3E72DE9FF4F1F468DB0D7E9014624
:100430004FF0FF382E2045464FF000090B90B96968
:100440006D1C0E988847396A824688470028F6D185
:10045000BAF1FF3F0AD024F4D064002E11DDBAF1C6
:100460002B0F08D0BAF12D0F0BD102E0404611B08E
:100470008DE744F48064B9696D1C0E988847824604
:10048000761E6946600501D52D2000E02B208DF8F1
:10049000000001F1010B0DF1200809E0B9696D1CA4
:1004A0000E98884782460F9844F40074761E0560C3
:1004B000002E02DDBAF1300FF0D00B998A453ED103
:1004C00044F0800406E00F99681CA9F1010944F486
:1004D00000740860B9696D1C761E0E9888478246C4
:1004E0003028F0D02BE00B998A4505D1200603D4A3
:1004F00044F08004761E18E0504604F0A7FD08B3CF
:100500000DF11301761E44F400748B4508D2AAF154
:1005100030000BF8010B200607D5A9F1010003E01C
:10052000200602D409F101008146A00502D50F99E9
:10053000681C0860B9696D1C0E9888478246002EB9
:10054000D1DC53E0002E51DDBAF1650F02D0BAF1D3
:10055000450F4BD1A00549D5B9696D1C24F44074F1
:10056000761E0E9888478246002E0CDD2B2804D07C
:10057000BAF12D0F07D144F48074B9696D1C0E983F
:1005800088478246761EE00501D52D2100E02B210B
:1005900008F8011BCDF82C8021E00DF12901761E11
:1005A00044F4007488450CD2AAF1300010F0FF002A
:1005B00088F8000002D10B99884509D908F1010893
:1005C00006E0E00501D5244801E042F20F708146C3
:1005D000B9696D1C0E98884782460F980560002EF9
:1005E00004DD504604F032FD0028D6D1F9690E989A
:1005F0008847FF208BF8000088F800000020069054
:1006000007904B466A4608A906A8FFF777FEA005A3
:1006100002D46FF001002AE714F0240F0AD0E0079B
:1006200014D1DDE906123868031D3B600068C0E99B
:1006300000120BE0DDE9060100F050FB0146E00787
:1006400004D13868021D3A600068016028460EE750
:10065000000014400000F03FF1D8FFFFF0B480EA42
:100660000102D40F4200B2EB410F02D2024608460B
:1006700011464A0042D0C30DDDB2C1F3C752AD1AD4
:10068000202D35DAC1F3160141F4000204B15242C3
:10069000C5F1200602FA06F12A411044B3EBD05FFF
:1006A00023D0C4B1012DA0EBC35009DCF0BC4FF046
:1006B000004202EAC352DBB200F5000000F0EDBBDD
:1006C000400000F1807000EBC350A0F1807040EA60
:1006D000D170490009E0490841EAC071A0EBC3505C
:1006E00000F50000400800EBC350F0BC00F0CCBBAC
:1006F0006142012202EB4101001BF6E7F0BC7047AA
:1007000081F00041AAE780F00040A7E780EA0102FB
:1007100010B502F00043400022D04A001FD0010E65
:1007200001EB1261C0F35600C2F3560240F4000020
:1007300042F40002A0FB022000047F39140400D020
:10074000401C50EA124001D44000491EC2B20C06BF
:1007500004EBD010401C4008802A02D003E00020A7
:1007600010BD20F00100002900DA0020184310BD60
:1007700030B480EA010202F0004530F0004221F07E
:10078000004013D090B1C30DD40DC2F31601C0F3D5
:100790001600E41A41F4000140F400027D34914255
:1007A00001D3641C00E04900002C02DA30BC0020B8
:1007B00070474FF400000023914201D3891A03438C
:1007C00040084FEA4101F7D151B1914202D14FF0B7
:1007D000004105E002D24FF0010101E06FF001019C
:1007E00003EBC450284430BC00F04EBB96230022DB
:1007F000114600F052BB014608897047FFFFFFFF1A
:100800002DE9FE4F804681EA0300C00F0C460090A0
:1008100021F0004123F00045B8EB0200A94105D2C8
:100820004046214690461C460B46024623F00040B7
:10083000104347D0270DC7F30A00C3F30A510290B3
:10084000401A019040286BDAC3F3130040F4801B78
:100850000098924620B10023D2EB030A63EB0B0B06
:1008600001985946C0F140025046FFF777FC064612
:100870000D4650465946019A00F086FA10EB0800E2
:100880006141002487EA115284EAE7731A4340D099
:10089000009A62B3019A012A4FEA075215DC001B45
:1008A00061EB02014FF0004202EA0752CDE900423B
:1008B000001C41F5801132462B4600F02BFB03B0A3
:1008C000BDE8F08F40462146F9E7001B61EB0201CD
:1008D000001C41F5801300185B412018A2F5001799
:1008E00047EB030140EAD570B6196D4111E06D0880
:1008F0004FEA360645EAC0754FEA0752001B61EB26
:100900000201001C41F5801149084FEA300000192E
:10091000514132462B4603B0BDE8F04F00F0EBBA30
:100920000098012240000023D0EB020263EBE07349
:10093000009821464FEAE074B8EB000061EB040137
:10094000E9E783F000435BE781F0004158E72DE9D8
:10095000FE4F81EA030404F0004421F000410094BA
:100960004FF0000B23F0004350EA01045ED052EA3E
:1009700003045BD0C3F30A54C1F30A552C44A4F218
:10098000F3340194A0FB0254C1F3130141F480112C
:10099000C3F3130343F4801301FB024400FB034E33
:1009A000840A970A44EA815447EA8357A4FB0768FC
:1009B00002958D0A05FB07854FEA932C04FB0C5426
:1009C0002705029D4FEA065847EA1637B5EB08059A
:1009D0006EEB070C870E920E47EA811742EA8312EC
:1009E000A7FB0201B6EB0B0164EB00042B0D43EAFD
:1009F0000C335E1844EB1C50DA465146E7FB02010B
:100A0000C5F313044FEA0B3343EA14534FEA04329D
:100A1000019C43EA0603A4F10C040294009CCDE976
:100A200000B400F077FA03B0BDE8F08F0020014673
:100A3000F9E72DE9F04D81EA030404F0004B21F0C1
:100A4000004514464FF0000A23F0004150EA050229
:100A500020D054EA01021DD0C5F30A570246C5F35F
:100A60001303C1F31300C1F30A5640F4801543F495
:100A70008013A7EB0608101BD64608F2FD3873EB6F
:100A8000050002D308F1010801E092185B41B8F1BA
:100A9000000F03DA00200146BDE8F08D00204FF47E
:100AA0008011064684460EE0171B73EB050705D33D
:100AB000121B63EB050306434CEA010C49084FEA9D
:100AC000300092185B4150EA0107EDD152EA030071
:100AD00012D082EA040083EA0501084305D0101B06
:100AE000AB4106D20122002306E000224FF0004372
:100AF00002E06FF0010253101AEB06004CEB0851B4
:100B000010EB0A0041EB0B01BDE8F04D00F0F3B92A
:100B1000C10F80EAE0700844CA079623002100F064
:100B2000BCB9F0B4CA17CB0F50405140C61841F1C0
:100B300000054FEAC372314628004FF0960303D0F8
:100B4000B623F0BC00F0A9B930460021F9E70EB594
:100B5000C10F80EAE0700844CA07002140F2334325
:100B60008DE80E000A460B4600F0D4F903B000BD34
:100B70000EB540F2334102910021CDE900110A4641
:100B80000B4600F0C7F903B000BD00F0004220F0B2
:100B90000040C10DC0F3160040F400007F2901DAC7
:100BA00000207047962903DCC1F19601C84001E09E
:100BB00096398840002AF4D04042704720F0004027
:100BC000C10DC0F3160040F400007F2901DA0020B7
:100BD0007047962903DCC1F19601C84070479639E9
:100BE0008840704770B5C1F30A5201F000450024F7
:100BF000C1F3130140F2FF3341F480119A4201DA4C
:100C0000002070BD40F233439A42A2F2334203DC2B
:100C1000524200F0A9F800E090402C43F1D040424D
:100C200070BDC1F30A5210B5C1F3130140F2FF3396
:100C300041F480119A4201DA002010BD40F23343A2
:100C40009A42A2F2334203DC524200F08DF810BD0A
:100C5000904010BD00F0004230F000400AD0C10DBD
:100C600001F56071C0F3160042EA0151C208400765
:100C700011437047002001467047000030B5041E44
:100C800071F1000404DB4FF00044404264EB0101C9
:100C9000141E73F1000405DB1C464FF00043524262
:100CA00063EB04038B4208BF824230BD30B5041EA3
:100CB00071F1000404DB4FF00044404264EB010199
:100CC000141E73F1000405DB1C464FF00043524232
:100CD00063EB0403994208BF904230BD01F000432A
:100CE00030B421F0004150EA010206D00A0DA2F50D
:100CF0006072C1F31301002A02DC30BC002070478F
:100D0000440F44EAC104C100E01830BC00EBC250FB
:100D100000F0BAB8002801DBC0F10040002901DB77
:100D2000C1F1004181427047002801DBC0F1004061
:100D3000002901DBC1F100418842704730B50B4604
:100D4000014600202022012409E021FA02F59D42FB
:100D500005D303FA02F5491B04FA02F52844151ECF
:100D6000A2F10102F1DC30BD202A04DB203A21FA95
:100D700002F00021704721FA02F3D040C2F12002B4
:100D80009140084319467047202A06DBCB17203ACA
:100D900041FA02F043EAE07306E041FA02F3D04080
:100DA000C2F120029140084319467047426842B19F
:100DB000016811F8013B23B1521EC0E90012184628
:100DC00070470121C160881E704742685AB1C368EC
:100DD000016843B983688B4205D0491E521CC0E9A3
:100DE0000012002070474FF0FF3070470FB400230F
:100DF00000B589B00CA900910B996FF00042CB604F
:100E00001E4B06931E4B07930423CDE901321D4A66
:100E1000089202466B460020FFF704FB09B05DF81C
:100E200014FB70B586B006464FF0FF300091CDE957
:100E30000101002015460C4604903246694604A87C
:100E4000FFF7D4FF02460498211825B108B10846DF
:100E500000E020462860049800280DD0002A02DD1A
:100E60000098884208D0081B0094CDE9010432465E
:100E7000694604A8FFF7BAFF06B070BDAD0D0000CB
:100E8000CB0D0000ED1000000029A8BF7047401CEA
:100E9000490008BF20F00100704710B4B0FA80FC90
:100EA00000FA0CF050EA010404BF10BC704749B1CD
:100EB000CCF1200421FA04F411FA0CF118BF01213D
:100EC00021430843A3EB0C01CB1D4FEA00614FEA1D
:100ED000102042BF002010BC704700EBC3501044EC
:100EE0000029A4BF10BC7047401C490008BF20F077
:100EF000010010BC704710B5141E73F1000408DA2D
:100F0000401C41F1000192185B411A4301D120F0CD
:100F1000010010BD2DE9F04D92469B4611B1B1FA8A
:100F200081F202E0B0FA80F220329046FFF716F923
:100F300004460F4640EA0A0041EA0B0153465A466E
:100F4000084313D0114653EA010019D0C8F14002FA
:100F50005046FFF709FF05460E46504659464246A1
:100F6000FFF7FCF8084305D0012004E0204639468D
:100F7000BDE8F08D0020054346EAE0762C43374378
:100F80000A986305E40AA0EB08000022FD0A44EA7F
:100F900047540A3002D500200146E9E7010510193F
:100FA0006941DDE9084500196941BDE8F04DA2E756
:100FB00070B521F0004303430CD0C1F30A5500245F
:100FC000D5EB040564EB0403D617AD1AB34102DB7D
:100FD0000020014670BD201841EB025170BD2DE983
:100FE000F04D00231A461B1A8A4103DB00200146FC
:100FF000BDE8F08DC1F30A52C1F3130141F480152D
:101000004FF0000BD10702D100186D41521E00278E
:10101000044640F2FF11384601EB620A3E46804624
:10102000024600204FF48011FFF79EFEC219714165
:10103000BB1846EB0100B4EB030C75EB000C04D3BA
:10104000E41A65EB000517460E46241908F1010065
:101050006D4180463428E3DDF91946EB0600091B93
:10106000A84103D24FF0FF32134601E0002213469D
:101070001BEB070046EB0A51BDE8F04DFFF73BBF05
:101080000EB540F2334202920022CDE9002213460F
:10109000FFF740FF03B000BDC1F30A52C1F31301D3
:1010A00040F2FF3341F480119A4202DA00200146F7
:1010B000704740F233439A42A2F2334202DC52427A
:1010C000FFF752BEFFF74AB8064C074D06E0E0684E
:1010D00040F0010394E8070098471034AC42F6D37F
:1010E000FFF734F8786E0000986E0000C0B24FF43D
:1010F000F05100F001B800007F2801D9002208E07B
:10110000064A02EB5002C007127800D1120902F021
:101110000F0201209040084070470000386E000028
:1011200070B58C1810F8015B15F0070301D110F8A9
:10113000013B2A1106D110F8012B03E010F8016BD6
:1011400001F8016B5B1EF9D12B0705D40023521E59
:101150000DD401F8013BFAE710F8013BCB1A921CC1
:1011600003E013F8015B01F8015B521EF9D5A142BF
:10117000D8D3002070BD000000B591B000F0A0FDF4
:1011800001200F9000200D9001200E9000200C9067
:101190008DF8410001208DF8400000208DF84300BB
:1011A00001208DF842000CA800F0C2F900208DF853
:1011B0001000059001200690032007901020089051
:1011C00004A800F003FC01208DF8100004A800F032
:1011D000FDFB0220099000208DF8290001208DF8E8
:1011E0002A008DF82B0000208DF828000B9009A80C
:1011F00001F008FF0122911E104600F007FD4FF09C
:10120000FF3000F01FFD01220B49002000F0FEFC22
:101210004FF0FF3000F016FD0848029000200190CA
:1012200007480390074901A800F0E0FD064802F0D6
:101230002BF9002011B000BD0082000200007A44AA
:101240000024744B00200020E5470A002DE9FF4FE1
:1012500085B00D4616461C46DDF8489003A802F0FE
:10126000C1FC1020039948604FF47C70039988609A
:101270003648039908623648039948624FF4F07083
:1012800003990865334803998861334800680399D6
:10129000486121460598FFF7E1F90190FFF7DAFC74
:1012A000824600222D4BFFF752FB0746FFF716FD43
:1012B0000399886221462846FFF7D0F90190FFF78D
:1012C000C9FC07460022254BFFF741FB8246FFF78A
:1012D00005FD0399C862224803990863039948638E
:1012E0000398C0F8B0900398C0F8B4403046FFF7B8
:1012F000B1FC07460022194BFFF729FB8246FFF796
:10130000EDFC0399C1F8B8004846FFF7A3FC02467C
:101310000B46CDE9000100201249FFF78AFB074682
:101320000022114BFFF70DFB8246FFF7D7FC039914
:10133000C863139804F054FD0290DDE902010864CB
:1013400001200399886409B0BDE8F08F000048438C
:101350000080E3440024744B002000200000F0BF14
:101360000080A24400407F400000E03F70B504468A
:1013700000252568606845EA0025208945EA004582
:10138000294642F2A81002F04FFB70BD2DE9F05F34
:1013900005460C461646204F4FF000084FF0000956
:1013A000A5F50040FFF7B4FB8146052C20D2DFE80D
:1013B00004F003040B1219001BE04FF07F51484664
:1013C000FFF7D6F9814614E04FF080414846FFF719
:1013D000CFF981460DE04FF081414846FFF7C8F94B
:1013E000814606E00D494846FFF7C2F9814600E014
:1013F00000BF00BF31464846FFF788F983464FF0EB
:101400008E41FFF7B5F982463946FFF77FF98046EE
:101410004046BDE8F09F0000110E813F00001041E2
:1014200010B50446218842F2A80002F0FDFA618856
:1014300042F2AC0002F0F8FAA18842F2B00002F0E9
:10144000F3FAE18842F2B40002F0EEFA10BD70B592
:10145000044642F2440001F0C5FD054605F0800552
:10146000E0680543207C012801D145F01005607C2F
:10147000012801D145F04005606845EA0025206853
:1014800045EA0035A06845EA8035E07C08B945F4B6
:101490008035A07D08B945F40035607D08B945F474
:1014A0008025294642F2440002F0BEFA207D18B1A0
:1014B0000121080400F001F870BD70B504460E4625
:1014C0004FF4005001F08EFD0546012E0FD104F0BF
:1014D000200018B125F0200524F0200404F4002099
:1014E00018B125F4002524F4002425430EE004F06F
:1014F000200018B145F0200524F0200404F4002059
:1015000018B145F4002524F40024A54329464FF4DE
:10151000005002F089FA70BD70B504460D462646AB
:1015200046EA8506314642F2F02002F07DFA70BDAF
:1015300070B504464FF4216001F054FD0546E07C8F
:10154000012815D145F004054CF6143140F60C2065
:1015500002F06AFA29464FF4216002F065FA00BFF2
:101560004FF4216001F03EFD00F480600028F7D0C8
:10157000207C01281ED145F002054CF6143140F6BE
:101580000C2002F051FA29464FF4216002F04CFA87
:1015900000BF4FF4216001F025FD00F40070002829
:1015A000F7D0607C012802D100F068FA02E0002048
:1015B00000F064FAA07C012815D145F001054CF635
:1015C000143140F60C2002F02FFA29464FF4216026
:1015D00002F02AFA00BF4FF4216001F003FD00F48D
:1015E00080700028F7D0207A00F03F06207A00F0C3
:1015F0003F000643207B00F00F0046EA801631468C
:101600004FF4816002F010FA0A2000F0A5F9266874
:10161000606846EA8006314640F2144002F004FA5F
:10162000E07C08B925F00405207C08B925F0020506
:10163000A07C08B925F001054CF6143140F60C20C9
:1016400002F0F2F929464FF4216002F0EDF970BD85
:101650002DE9F04192B004460D460020119034224D
:10166000524904A8FEF7EDFD504B3433D3E9002076
:10167000D3E9021301AE0BC600920020286014B912
:1016800012B0BDE8F08105B9FAE760680B2800D90F
:10169000F6E72068022800D9F2E7A068032800D9FD
:1016A000EEE7206930B1012813D002282BD003289F
:1016B00075D13FE0616901EB81018800FFF796F881
:1016C0000746A169FFF722F80646FFF777FA11905F
:1016D00066E06169891C22685DF822205143491C3B
:1016E00001EB81018800FFF781F88046A169FFF7CF
:1016F0000DF807464FF07C51FEF7B0FF0646FFF7A6
:101700005DFA11904CE06069401C04AA616852F8CF
:1017100021104843401C1190012020611198606104
:1017200011A92046FFF794FF0220206111980F3085
:10173000119035E0E068A0B101280BD0022802D05A
:10174000032823D114E00020206111A92046FFF7CF
:101750007FFF1CE00120206111A92046FFF778FFE0
:1017600015E00220206111A92046FFF771FF0EE06D
:1017700001202061217A491C01228A40606950437E
:10178000606111A92046FFF763FF00E000BF00BFC2
:101790000320206111981930119001E0FFE700BF8C
:1017A00000BF1198286000BF6AE700009C6B000032
:1017B000002002490860012070470000140000204A
:1017C0002DE9FC5F06460D4614466068FFF7A0F958
:1017D00082466068FFF79CF983465146FEF796FF04
:1017E00080462068FFF794F982462068FFF790F959
:1017F00083465146FEF78AFF81464146FEF72EFF9B
:1018000007466068FFF784F982466868FFF780F949
:1018100083465146FEF77AFF80462068FFF778F945
:1018200082462868FFF774F983465146FEF76EFF3B
:1018300081464146FEF712FF009039460098FEF7B8
:1018400097FF00906068FFF763F982462868FFF70A
:101850005FF983465146FEF759FF80462068FFF73F
:1018600057F982466868FFF753F983465146FEF7F9
:101870004DFF81464146FEF743FF019039460198EE
:10188000FEF776FF0190DDE90001C6E90001BDE841
:10189000FC9F00000146B1F5805F06DB43F21400B7
:1018A000814202DC0248085870470148085AFBE7A9
:1018B00000000C40B0F5805F06DB43F2140290425A
:1018C00002DC034A815001E0014BC1527047000025
:1018D00000000C4070B50446002542F2440001F0BF
:1018E00081FB06466068032807D146F08006314632
:1018F00042F2440002F098F809E026F080063146F2
:1019000042F2440002F090F8A08845EA00552068B1
:1019100045EA0015207A012801D145F00105294644
:1019200042F2D00002F080F870BD10B504462046A7
:10193000FFF71CFD04F10C00FFF789FD04F1240002
:10194000FFF76EFD04F12C00FFF7C4FF04F138002F
:1019500001F0A2FD10BD000010B5044604B910BD91
:1019600004EB84001249B1EB400F16D904EB84005C
:1019700040001A2148434FF0E021486105200861EA
:1019800000BF4FF0E020006900F480300028F8D05C
:1019900000204FF0E021086108E06008FFF7DCFF5D
:1019A00004F0010101EB5400FFF7D6FF00BFD6E7BA
:1019B0009DD8090010B5002142F21C1002F034F845
:1019C000012142F21C1002F02FF810BD70B5044640
:1019D000002142F2080002F027F842F2D81001F08C
:1019E00001FB054605F03F05606845EA4025A06813
:1019F00045EA8015294642F2D81002F015F8208AEF
:101A0000010442F2E01002F00FF8002520780128CE
:101A100001D145F40065E06845EA4035294642F2C7
:101A2000080002F001F870BD70B505460E460024AE
:101A3000012E01D144F4006444EA4534214642F2C7
:101A4000080001F0F1FF70BD10B54FF4085001F02F
:101A5000C9FA000C10BD000002E0044AD26E04C0B6
:101A60000A1EA1F10101F8D17047000000200C40CE
:101A70000148006870470000140000202DE9F04183
:101A800005464FF4826001F0ADFA0446C4F34027E6
:101A9000C4F30028E4B2380240EA4820044344F08A
:101AA00020014FF4826001F0BFFF42F2BC0001F060
:101AB00099FA0646012D0FD126F0040142F2BC002E
:101AC00001F0B2FF00BF4FF4216001F08BFA00F487
:101AD00000700028F7D00EE046F0040142F2BC008E
:101AE00001F0A2FF00BF4FF4216001F07BFA00F487
:101AF00000700028F7D024F020014FF4826001F03C
:101B000093FFBDE8F08170B50546002428680128E0
:101B100001D144F480546868012801D144F00104E3
:101B2000287A44EA4004214642F2100001F07CFF8A
:101B300070BD10B5044604F11000FFF7E4FF04F196
:101B4000500000F009F8204601F066FC04F11C008A
:101B500001F07EFD10BD00007FB504461CB96FF09A
:101B6000020004B070BD2069032802D26FF00100AA
:101B7000F7E720690B2802D96FF00100F1E76069EF
:101B8000052802D96FF00100EBE700252068054326
:101B9000294642F2FC0001F047FFA0684501606859
:101BA0000543207B012801D145F01005294642F26A
:101BB000F00001F039FF002520690B2801D3F8253A
:101BC00018E02069032803D320690830C50011E01C
:101BD0000D4B0FCB8DE80F006069052808D22069F6
:101BE00000EB8000694608446169405CC50000E084
:101BF000F82500BF60690543294642F2F80001F06C
:101C000013FF0020ADE70000506C00002DE9F0410B
:101C100006460D46174643F20808012E01D143F24D
:101C20000C081FFA88F001F0DDF90446012F01D1FC
:101C30002C4300E0AC431FFA88F0214601F0F4FE8B
:101C4000BDE8F08110B50446214643F2040001F0DE
:101C5000EBFE10BD70B505462DB943F2080001F04A
:101C6000C1F9044604E043F20C0001F0BBF904465C
:101C7000204670BD70B5044614B943F2100001E06F
:101C800043F214000646B0B201F0ACF9054628460E
:101C900070BD2DE9F04105460E4615B943F210001E
:101CA00001E043F214000746B8B201F09BF9044684
:101CB00004EA060010B10120BDE8F0810020FBE736
:101CC00010B59CB0702224496846FEF7BAFA002489
:101CD00008E06A4602EBC4023DF83400516801F0A6
:101CE000A3FE641C0E2CF4D340F2044001F07AF9F8
:101CF000044645F20150844203D10120174908707F
:101D000014E045F20250844203D1012013490870C7
:101D10000CE0B4F5AA4F03D100201049087005E08B
:101D200021460FA002F042FF00BFFEE719A002F01B
:101D30003DFF0A48007808B11AA000E01AA0014649
:101D40001AA002F033FF0023022219461FA002F05E
:101D50002DFF1CB010BD0000E06B0000280000202B
:101D60004348495049442072656164206572726F2E
:101D7000723A3078253034782E2041443539343069
:101D8000206973206E6F742070726573656E743F86
:101D90000A0000005468697320414475434D33358F
:101DA00035210A0053320000533100004E6F746534
:101DB0003A2043757272656E742053696C69636F63
:101DC0006E2069732025730A0000000041443539F4
:101DD00034304C49422056657273696F6E3A7625ED
:101DE000642E25642E25640A000000002DE9F04FC2
:101DF0009FB004460D4624B96FF002001FB0BDE845
:101E0000F08F15B96FF00200F8E74FF07E5160686F
:101E1000FEF780FF02D26FF00100EFE719A801F092
:101E2000C7F90120FFF716FF80460122D1031046B3
:101E3000FFF7ECFE4FF0FF30FFF704FF01201C908E
:101E400000208DF875008DF876008DF87700012060
:101E50008DF8740000201E901CA801F0D3F85348A0
:101E600018900020149001201690206815900120F1
:101E70008DF85C0014A801F0C0F9012014902068CE
:101E8000401C1590012016904948189014A801F0A4
:101E9000B4F900208DF84C00039001210491012039
:101EA000029004200F904FF084416068FEF72EFCF2
:101EB00083464FF07C51FEF7D1FB8246FEF77EFE53
:101EC000401F0B9003211091091F0C910B98401C8F
:101ED0001099491C00EB010902A801F05DFC4FF4C8
:101EE0000040FFF7AFFE012001F004FD00BF4FF4FA
:101EF00000410120FFF7CDFE0028F8D001F048FA9C
:101F00000646002001F0F6FC04221146002001F0F4
:101F100004FD012014902068401C159002201690AA
:101F20002448189001208DF85C0014A801F065F990
:101F3000012001F0B8F84FF40040FFF783FE0120C4
:101F400001F0D8FC00BF4FF400410120FFF7A1FED3
:101F50000028F8D001F01CFA07464FF40041002099
:101F6000FFF797FE002001F0C5FC19A801F04AF820
:101F7000C8F3C0324FF400410120FFF747FE4FF491
:101F80000040FFF75FFEB81BFEF730FC01904846AB
:101F9000FEF72CFC8346A168FEF7B8FB8246019948
:101FA000FEF7E6FB2860002028E70000886D0000AF
:101FB0008C6D0000906D000070B504460025207EF9
:101FC00008B945F00205607E08B945F001052069B1
:101FD000042802D145F0040502E0206945EAC00565
:101FE000E06845EA4015A06845EA8025606845EA52
:101FF0004035206850B9294642F2EC0001F014FD4A
:1020000042F2E400616901F00FFD09E0294642F265
:10201000E80001F009FD42F2E000616901F004FD11
:1020200070BD70B504460D4605F03F05C4F30B04C2
:1020300044EA053142F2201001F0F6FC70BD70B5A3
:1020400004460D4605F03F05C4F30B0444EA053190
:1020500042F22C1001F0E8FC70BD70B5044600257A
:1020600060688501A06845EA0015E06845EAC0059A
:10207000606945EA8005207E08B945F00105607E6B
:1020800008B945F00205206880B9294642F22810B7
:1020900001F0CAFC217F608BFFF7C3FF206940F08D
:1020A000200142F2241001F0BFFC0FE0294642F269
:1020B000341001F0B9FC217F608BFFF7C0FF20696D
:1020C00040F0200142F2301001F0AEFC70BD10B5BE
:1020D00004462046FFF7C1FF04F12000FFF76CFF24
:1020E00010BD000003B5FFB0002040903F906C226F
:1020F000FE4922A8FEF7A5F81422FC496C311DA860
:10210000FEF79FF87F9820B96FF002000DF5017D72
:1021100000BD7F98406800211490FEF7FBFD02D1BE
:102120006FF00100F2E77F98C0691A2802D96FF0BA
:102130000100EBE77F98C06910B96FF00100E5E797
:10214000809810B96FF00200E0E77F98C0681190A6
:10215000FEF780FD0022E64BCDE91201FEF7A6FD59
:1021600001D2012040907F98006800211490FEF772
:10217000D1FD01D101203F9065A8439045A844902E
:102180007F98C06922A951F820003D903D98FEF744
:10219000EFFCCDE910017F9840680B90FEF75AFDE7
:1021A0000022D44BCDE90C01FEF7D1FBCDE90E01A5
:1021B000DDE91023FEF73DFCCDE91201FEF78EFDAF
:1021C0003E90CD493E98FEF7D3FACC491290FEF7E7
:1021D0009DFA4FF080411390FEF798FA1490FEF7A5
:1021E000EDFC401C40081C9040F216511C9888429F
:1021F00001D908461C901C98FEF7F8FAC0491090C7
:10220000FEF784FABD491190FEF7B2FA3E903D9870
:10221000FEF7ECFA11907F984068BA490E90FEF7ED
:102220001DFA01460F903E98FEF7A2FA1090119900
:10223000FEF76CFA14903D98FEF7D8FA014610901C
:102240001498FEF795FA11907F9840680146109017
:102250001198FEF75BFA1390AB481399FEF788FAD2
:102260001290AA491298FEF75FFD02D804201A9036
:102270001CE04FF081411298FEF756FD02D8032072
:102280001A9013E04FF080411298FEF74DFD02D8EE
:1022900002201A900AE04FF07F511298FEF744FD99
:1022A00002D801201A9001E000201A909648149953
:1022B000FEF75EFA129095491298FEF735FD02D8A6
:1022C00004201B901CE04FF081411298FEF72CFD7A
:1022D00002D803201B9013E04FF080411298FEF7C4
:1022E00023FD02D802201B900AE04FF07F51129884
:1022F000FEF71AFD02D801201B9001E000201B9080
:102300001DA91A9851F8200011901B9851F820002F
:1023100010901199FEF72CFA19904FF4005000F02C
:1023200061FE41900120FFF795FC429001220621B9
:102330001046FFF76BFC4FF0FF30FFF783FC0021E6
:102340007348FFF7BAF802F041FC442145A801F0B8
:10235000B7F8032145A84161409808B9012100E080
:10236000002145A881617F98816A45A801617F9815
:10237000406A4890012145A8017700214177012159
:102380008DF83511C1778DF8341181778DF83611BC
:102390007F98D0E90B21406B50925191529045A803
:1023A000FFF7C3FA3C2156A801F08AF87F9800692C
:1023B00008B1012000E0002056904FF40060ADF815
:1023C00072012020ADF8740100208DF870011120F9
:1023D0005A9000205B9001205790599058908DF8AA
:1023E00071017F9800695E907F98016A56A8016329
:1023F00001218DF890118DF89111042181627F984F
:10240000C16956A8C162002141627F98007E0128FF
:1024100001D1202000E0002040F4A07156A84163C3
:10242000FFF755FE682165A801F04AF800218DF8F4
:10243000F0117F98006908B9012000E0022079902E
:102440001F2165A88165052141660B2101660021D8
:1024500041650020699065A84161FF2181617F98F5
:10246000006908B9402000E0802040F0010065903C
:1024700001206690400267904FF4106068903F988A
:10248000002876D04FF0FF30149000206C9065A9A2
:102490001C98C86400218DF8B4118DF8B51165A899
:1024A000FFF747FB1C9800F5006001F026F90121B9
:1024B0004FF49940FFF701F80121439801604398D8
:1024C00041604902439881604FF410614398C160B4
:1024D000439800F0A1FF4FF47A70FFF73DFA142102
:1024E0004498416024214498016013E0FC6C000092
:1024F000006A7841000099400080094500E0FF44EF
:102500000000FA440000C84200803B450000104132
:10251000E0FF390044991A9888604498FEF726FF36
:102520003220FFF719FA14A802F072FB13907F987B
:10253000006930B90221449841602121449801602A
:1025400005E00321449841602221449801604499A8
:102550001B9888604498FEF709FF3220FFF7FCF9CA
:1025600014A802F055FB12907F98006910B9402022
:1025700001E050E0802040F001014398016001211A
:10258000439841604902439881604FF41061439839
:10259000C160439800F040FF4FF47A70FFF7DCF918
:1025A00045A8449014214498416024214498016036
:1025B00044991A9888604498FEF7D8FE3220FFF7B5
:1025C000CBF914A802F024FB1399401A17900020AD
:1025D00018907F98006930B9022144984160212108
:1025E0004498016005E00321449841602221449809
:1025F000016044991B9888604498FEF7B7FE32202A
:10260000FFF7AAF914A802F003FB1299401A1590DB
:1026100000201690D1E0E24A07CA02AB07C365A8C2
:102620001C9901647F98806801907F9800680090F1
:10263000019901F06DF865A9C863002165A841649E
:102640008164C16402206C908DF8B4118DF8B511CD
:1026500065A8FFF76EFA0220FFF7F4FA0FA800F062
:10266000A7FD05A9032000F002FE01201290002022
:102670008DF84D008DF84E008DF84F0001208DF83B
:102680004C000020149012A800F0BCFC02A80E9090
:1026900003200A900C9000200B9001208DF834004C
:1026A0000AA800F0AAFD01214FF44060FEF705FFE3
:1026B0006420FFF751F945A84490142144984160E3
:1026C00024214498016044991A9888604498FEF740
:1026D0004DFE032000F003FE00BF02210120FFF7A2
:1026E000D8FA0028F9D000214CF28010FEF7E5FE60
:1026F0000220FFF7A7FA032000F03CFC179004200B
:1027000000F038FC18907F98006930B90221449895
:10271000416021214498016005E003214498416013
:1027200022214498016044991B9888604498FEF7E0
:102730001DFE032000F0D3FD00BF02210120FFF7A2
:10274000A8FA0028F9D000214CF28010FEF7B5FE5F
:102750000220FFF777FA032000F00CFC159004200C
:1027600000F008FC1690179800F4003018B18D495D
:10277000179808431790189800F4003018B1894949
:10278000189808431890159800F4003018B185493E
:10279000159808431590169800F4003018B1814937
:1027A000169808431690002000F07DFC05A800F064
:1027B00024FD0FA800F026FC00BF1698404216909A
:1027C0001898404218907F98806B58BB17AA15A99B
:1027D00011A8FEF7F5FFDDE91101CDE913017F989E
:1027E000406811901999FDF7C3FF129013980146A4
:1027F00011901298FDF78AFF13907F98406811900E
:102800001999FDF7B5FF129014980146119012988E
:10281000FDF77CFF149013998098016014998098BB
:1028200041609AE018980890FEF772F90A9018989B
:102830000890FEF76DF909900A99FDF767FF0C9073
:1028400017980890FEF764F90A9017980890FEF719
:102850005FF909900A99FDF759FF0B900C99FDF764
:10286000FDFE0D90FEF7F6F9CDE90E0103F04EFFE7
:10287000CDE91001FEF732FA149016980890FEF791
:1028800047F90A9016980890FEF742F909900A99BC
:10289000FDF73CFF0C9015980890FEF739F90A9067
:1028A00015980890FEF734F909900A99FDF72EFF64
:1028B0000B900C99FDF7D2FE0D90FEF7CBF9CDE908
:1028C0000E0103F023FFCDE91001FEF707FA139084
:1028D000DDE91301FDF74CFF10907F984068014639
:1028E0000F901098FDF712FF11901999FDF740FF16
:1028F000139017980790FEF72AF9CDE90A01189866
:102900000790FEF724F9CDE90801DDE90A2303F079
:1029100051F8CDE90E0115980790FEF718F9CDE9A9
:102920000A0116980790FEF712F9CDE90801DDE9D2
:102930000A2303F03FF8CDE90C01DDE90E23FEF791
:1029400000F8CDE91001FEF7C9F9129080991398AB
:10295000086080991298486000BF429800F0020019
:1029600020B9002202210120FFF750F9429800F01F
:10297000040020B9002204210120FFF747F94FF499
:102980000050419901F050F80020659066906790E2
:10299000689065A800F040FD0020FFF7B7BB00007D
:1029A0007C6D00000000FCFF10B5044600220221EF
:1029B000104801F005FE012202210E4801F01FFE21
:1029C00001221146D00301F043FE042000280DDB54
:1029D00000BF00BF00F01F02012191404209920098
:1029E00002F1E022C2F8001100BF00BF00BF0020CA
:1029F00010BD00008000024090B0D748D7A10978F0
:102A00000170FEF7B9FBFEF7D3FEA3E1FFF730F844
:102A100060B1FEF7CDFE4FF480600E900EA9D04855
:102A200001F0ECF8CE480E9903F0A4FECD48006802
:102A30000128EAD10020CB490860C748FDF725FCF2
:102A4000401EC549085C7D2804D00122C6A1C248A9
:102A5000FDF730FCC04803F0DBF80D90BE48BFA185
:102A600009780170C1A10D9803F0BCF804460CB1BF
:102A7000606901E0BF4800680C90BFA10D9803F0A9
:102A8000B1F804460CB1606901E0BA4800680B90E7
:102A9000B8490C980968884203D0BBA002F086F8B8
:102AA00054E1B4490B98096888420AD003F01CFA33
:102AB00018B1B9A002F07AF848E1BCA002F076F8AB
:102AC00044E1BFA10D9803F08DF8044614B1D4E998
:102AD000060103E0A7480068FEF739F80746FEF74D
:102AE000FDF805462846FEF7B5F80746B64AB74B47
:102AF000FDF79FFFCDE90201FEF7F0F80646B4A10D
:102B00000D9803F06FF804466CB13046FEF7A2F85A
:102B1000CDE90201D4E90601CDE90001DDE9022396
:102B2000FDF715FF03E093480068FEF710F807462D
:102B3000FEF7D4F88146A8A10D9803F053F8044697
:102B40006CB13046FEF786F8CDE90201D4E9060102
:102B5000CDE90001DDE90223FDF7F9FE03E0854838
:102B60000068FDF7F4FF0746FEF7B8F882469CA11F
:102B70000D9803F037F804466CB13046FEF76AF85A
:102B8000CDE90201D4E90601CDE90001DDE9022326
:102B9000FDF7DDFE03E077480068FDF7D8FF074644
:102BA000FEF79CF8834691A10D9803F01BF80446AC
:102BB0006CB13046FEF74EF8CDE90201D4E90601CA
:102BC000CDE90001DDE90223FDF7C1FE03E069481C
:102BD0000068FDF7BCFF0746FEF780F80A9086A163
:102BE0000D9802F0FFFF044614B1D4E9060103E09A
:102BF00060480068FDF7ABFF0746FEF76FF80990E5
:102C00007FA10D9802F0EEFF044614B1D4E906014D
:102C100003E058480068FDF79AFF0746FEF75EF8A4
:102C200008904FF07E510898FDF7A2FD079076A11D
:102C30000D9802F0D7FF04466CB10798FEF70AF82A
:102C4000CDE90201D4E90601CDE90001DDE9022365
:102C5000FDF77DFE03E047480068FDF778FF074673
:102C6000FEF73CF806906BA10D9802F0BBFF0446FE
:102C70002CB1D4E906211046FDF7B4FF01E03D4830
:102C800000686849086068A10D9802F0ABFF04462F
:102C90002CB1D4E906211046FDF7A4FF01E0354828
:102CA00000686549086065A10D9802F09BFF044625
:102CB0002CB1D4E906211046FDF794FF01E02D4820
:102CC00000680746FDF724FF05905EA10D9802F00D
:102CD00089FF04460CB1606901E026480068049051
:102CE00000F038FC012000F005FE0EE0FEF7C0FE0B
:102CF00058B1FEF75DFD00F02DFC00F0E9FB00206F
:102D000000F0F8FD00F0A4F800E0EFE700BF19497B
:102D100004980968884203D00499C8B203F0B0FC53
:102D2000DDE905020999CDE9001202905A465146A3
:102D300048460A9BFEF78AFA4FF48061084800F083
:102D4000BFFF0021084600F08DFE00BF0D9802F085
:102D50001DFF00BF5AE60000B01000200000000078
:102D600030000020142000207D0000007374617486
:102D7000757300000420002063686970496E7365F4
:102D800072746564000000007B2273746174757353
:102D9000223A317D2A0000007B2263686970496E07
:102DA000736572746564223A317D2A007B22636800
:102DB0006970496E736572746564223A307D2A00C9
:102DC000765363616C650000FCA9F1D24D62503FFF
:102DD000765374617274000076456E6400000000E2
:102DE00076496E6372656D656E74000076416D7034
:102DF0006C6974756465000066726571487A0000DC
:102E0000695363616C6500006D617843757272652A
:102E10006E74000069466F72776172645265637602
:102E20000000000018200020695265766572736505
:102E300052656376000000001C2000206368616E0C
:102E40006E656C006D757853656C65637400000089
:102E50002DE9F05F002500241BE0164830F824001F
:102E600087B2A7F500473846FDF752FE8346124960
:102E7000FDF77EFC82464FF07F51FDF779FC8146DD
:102E80000E49FDF73DFC80462946FDF7E7FB054668
:102E9000641C0B4800688442DFD309480068FDF7D2
:102EA000A5FC044621462846FDF762FC0646BDE81F
:102EB000F09F0000882100207B1402413393884357
:102EC0007421002070B505464FF4005000F08AF8D8
:102ED000044624F02004287808B944F02004214650
:102EE0004FF4005000F0A0FD4FF4065000F07AF8C7
:102EF00004466878012801D144F00104A87801282B
:102F000001D144F01004E878012801D144F0040410
:102F10002879012801D144F02004687A012801D1E0
:102F200044F48074A87A012801D144F00204E87ABC
:102F3000012801D144F00804287B012801D144F084
:102F4000400421464FF4065000F06EFD0024A8799D
:102F500008B944F00204687908B944F00104E8793A
:102F6000012801D144F00404214642F2500000F04F
:102F70005BFD70BD70B504460025072C2FD2DFE83D
:102F800004F0040A10161C22280042F2740000F01B
:102F900029F8054623E04FF4025000F023F80546D7
:102FA0001DE042F2840000F01DF8054617E042F2F1
:102FB000780000F017F8054611E042F27C0000F0BE
:102FC00011F805460BE042F2C81000F00BF8054678
:102FD00005E04FF4075000F005F8054600BF00BFBC
:102FE000284670BD10B5044605480078012803D175
:102FF000204600F083F910BD2046FEF74BFCFAE7AF
:10300000B011002070B5054642F20800FFF7EAFF54
:103010000646002142F2080000F006FD42F2D810F8
:10302000FFF7E0FF044624F03F0444F0080428685A
:103030000443214642F2D81000F0F6FCE87948B18A
:10304000002142F2040000F0EFFC002142F2640093
:1030500000F0EAFC00242879012801D144F00104A1
:10306000A86844EA0024214642F2040000F0DCFC97
:10307000314642F2080000F0D7FC70BD70B505463D
:103080000C4616460AE029466D1C42F2D41000F0A8
:10309000CBFC02CC42F2700000F0C6FC301EA6F160
:1030A0000106F0D170BD70B5054642F20400FFF78D
:1030B00099FF0446012D02D144F0010401E024F0FF
:1030C0000104214642F2040000F0AEFC70BD000095
:1030D00018B90021044A117005E00021024AD160AC
:1030E0009161012111707047B0110020024612B1A8
:1030F000044B9B68136011B1024BDB680B60014B02
:1031000098697047B011002070B504460D46A0B212
:10311000FEF7C0FB2860002070BD0000022900D22D
:103120007047074A5160906000EB8102121F044B08
:103130001A610022DA605A619A611A7000BFEFE7E3
:10314000B01100200C4A52690B4BDB68D1180A4AB7
:1031500052688A420BD9084A9268074BDB6842F8EA
:103160002300054AD268521C034BDA6003E06FF07B
:103170000302014B9A617047B011002002460B46D2
:10318000C2F38702002109E00848006910F8210015
:10319000904202D1196000207047491C03484069E1
:1031A0008842F1D86FF00600F6E70000B011002069
:1031B00070B5044614B96FF0020070BD42F2D81029
:1031C000FFF710FF054605F0070020600020E071C2
:1031D00042F20400FFF706FF054605F001002071EA
:1031E000C5F30720A0600020E7E710B5044621469C
:1031F00042F2540000F018FC10BD10B504462068DF
:1032000030B101280DD0022814D0032824D11AE0AF
:103210002289606840EA024142F2CC1000F004FCCE
:103220001BE02289606840EA024142F2E81000F0A7
:10323000FBFB12E02289606840EA024142F2D010B2
:1032400000F0F2FB09E02289606840EA024142F2A4
:10325000E41000F0E9FB00E000BF00BF207B012884
:1032600004D1D4E901022169FFF708FF10BD70B550
:1032700006460C4614B96FF0020070BD36B1012E3F
:103280000AD0022E0ED0032E18D111E042F2CC103B
:10329000FFF7A8FE054614E042F2E810FFF7A2FE91
:1032A00005460EE042F2D010FFF79CFE054608E00E
:1032B00042F2E410FFF796FE054602E06FF00100CF
:1032C000DBE700BF002020612660C5F30A40A06054
:1032D000C5F30A0060600020207300BFCDE710B581
:1032E0000446032C00D910BD012000FA04F14FF46C
:1032F000866000F099FB00BFF5E700001CB50446AE
:1033000001A92046FFF73AFF40B169462046FFF782
:10331000FBFE2046009900F00DF806E00448006925
:10332000019950F82100000A009000981CBD00008F
:10333000B011002010B5154B5B69144CE4681A19E4
:10334000124B5B6893421BD9104B1B691B1F0F4C20
:10335000236184080D4B1B691B6864F307030B4C46
:1033600024692360094B1B691B6861F31F23074C09
:1033700024692360054B5B695B1C044C636103E0BB
:103380006FF00303014CA36110BD0000B0110020D9
:1033900010B542F26800FFF725FE10BD38B50446AF
:1033A0000D46B4F5085F04DB6FF00400194988612D
:1033B00038BD69462046FFF7E1FEC0B915480069EF
:1033C000009950F8210065F31F2012490969009AFD
:1033D00041F82200C4F386014FF0004242EA016145
:1033E00025F07F4241EA0200FFF7ACFE0FE02946DC
:1033F0002046FFF79FFFC4F386014FF0004242EAE8
:10340000016125F07F4241EA0200FFF79BFE00BF09
:10341000CEE70000B011002010B5044642F2501073
:10342000216800F001FB42F25810616800F0FCFADC
:1034300042F25410A16800F0F7FA42F25C10E16821
:1034400000F0F2FA4FF4803142F20C0000F0ECFA96
:1034500010BD000000B593B00D210FA800F030F8AA
:103460003C21684600F02CF80FA8FFF72BFD6846BA
:10347000FEF72DFE034800F007F8FEF79BFA13B0A5
:1034800000BD0000E5470A0010B50446214642F29F
:10349000181000F0C9FA10BD70B505460024287A4E
:1034A000012801D144F00104686844EA0014286846
:1034B00044EAC014214642F2C41000F0B5FA70BDCF
:1034C00070B504460D4629462046FCF7D3FE70BD74
:1034D00070B50A2000F08FFA0A2803D913A001F072
:1034E00065FB70BD0020FFF7CFFF0020FEF7C2FB99
:1034F000054605F00070B8B1FEF7A6FA0446102C98
:1035000001D9102000E0204604460F4804602146FF
:103510000E48FEF7A1FA4FF00070FEF793FB0C483F
:10352000FFF7B2FFFEF746FA00BFDAE74661696CC3
:10353000656420746F2077616B6575702041443538
:10354000393430210A000000742100208821002035
:10355000E5470A0000B5A1B00220059001200690C1
:103560000020029001200190002003904FF07E5037
:103570000790694601A8FEF76BF801F057FC10218F
:103580002B48FFF7CBFD0120FFF7A2FD0220FFF73C
:103590002CFE4FF44860FFF7D5FD01218020FDF798
:1035A0008CFF4FF44870FFF7CDFD01214FF404501C
:1035B000FDF783FF009921F04040FFF7C3FD002194
:1035C0004FF40250FDF779FF1420FFF7BBFD0020F8
:1035D000FFF70BFEFEF7EEF90020FFF779FD1FA9BC
:1035E00020A8FFF783FD10B112A002F0E1FF2098A0
:1035F0001E9000201A901F981C9000201B90012004
:103600008DF874001AA8FFF7F8FD00208DF864000B
:10361000089009900320119040F2CB70159008A8F3
:1036200000F0BAF80120FFF73EFD21B000BD000018
:103630008821002053657175656E63652067656E2E
:10364000657261746F72206572726F722100000082
:1036500070B504462068022814D142F23000216A75
:1036600000F0E2F942F23C00616A00F0DDF942F25A
:103670003800A16A00F0D8F942F23400E16A00F0A3
:10368000D3F926E0206803281ED142F21800A16871
:1036900000F0CAF942F21C00E16800F0C5F942F2FC
:1036A0002000216900F0C0F942F22800616900F0B1
:1036B000BBF942F22400A16900F0B6F942F22C00F5
:1036C000E16900F0B1F904E042F24800216B00F03A
:1036D000ABF900252079012801D145F0200560795A
:1036E000012801D145F01005206845EA400529462A
:1036F00042F2140000F098F970BD10B50446C4F30E
:103700000B04214642F2480000F08EF9002010BD63
:103710002DE9FF5F82468B461A251D480078012857
:1037200000D11E2500215846FDF7F4FA03D10020F0
:1037300004B0BDE8F09F2A4601264FF0000930464C
:103740004946FCF70BFD0746FDF7EBF951460090A3
:10375000FCF7DCFF59460190FDF70AF84FF07C5169
:103760000290FCF77BFF0390FDF728FA04461A2D20
:1037700001D1084801E06FF07F40A04206D21A2D27
:1037800001D1044801E06FF07F4004462046CFE7B6
:1037900028000020FFFF0F0070B50446A08E81B204
:1037A00040F6080000F040F9606BC0F3034140F6BA
:1037B0000C0000F039F9A08C81B24FF4016000F0E8
:1037C00033F9606AC0F3034140F6140000F02CF9AD
:1037D000208F81B240F6180000F026F9A06BC0F3EC
:1037E000034140F61C0000F01FF9208D81B24FF418
:1037F000026000F019F9A06AC0F3034140F624000A
:1038000000F012F9A08F81B240F6280000F00CF908
:10381000E06BC0F3034140F62C0000F005F9A08DE9
:1038200081B24FF4036000F0FFF8E06AC0F3034197
:1038300040F6340000F0F8F84020005B81B240F61A
:10384000380000F0F1F8206CC0F3034140F63C0072
:1038500000F0EAF8208E81B24FF4046000F0E4F842
:10386000206BC0F3034140F6440000F0DDF8012175
:1038700040F61C2000F0D8F80025207900F0030065
:103880000543207A00F0030045EA8005207B00F024
:10389000030045EA0015207C00F0030045EA80158E
:1038A000207D00F0030045EA0025207E00F00300A3
:1038B00045EA8025207F00F0030045EA00352020FE
:1038C000005D00F0030045EA8035294640F604001B
:1038D00000F0AAF8002594F84400012801D145F031
:1038E0000105206845EA400529464FF4006000F0D4
:1038F0009BF870BD70B505464FF40060FFF772FB92
:1039000084B224F00104012D01D144F001042146C8
:103910004FF4006000F088F870BD70B506460C46A4
:10392000154636B1012E1BD0022E30D0032E5CD1AD
:1039300044E0A9B240F6080000F076F8C5F3034170
:1039400040F60C0000F070F8A1B24FF4016000F0F6
:103950006BF8C4F3034140F6140000F065F847E04B
:10396000A9B240F6180000F05FF8C5F3034140F635
:103970001C0000F059F8A1B24FF4026000F054F8B6
:10398000C4F3034140F6240000F04EF830E0A9B241
:1039900040F6280000F048F8C5F3034140F62C003B
:1039A00000F042F8A1B24FF4036000F03DF8C4F318
:1039B000034140F6340000F037F819E0A9B240F6B0
:1039C000380000F031F8C5F3034140F63C0000F048
:1039D0002BF8A1B24FF4046000F026F8C4F30341C1
:1039E00040F6440000F020F802E06FF0010070BDE6
:1039F00000BF0020FBE770B50446002510E06D1CF9
:103A00004FF48060FFF7EEFA44F24411884200D18F
:103A100007E0002C00DC03E0A54200D901E000BF74
:103A2000EDE700BF284670BD70B504460D46074857
:103A30000078012804D129462046FFF7AFFC03E0B7
:103A400029462046FDF736FF70BD0000B01100206A
:103A500010B5082000F052FE01200149086010BD99
:103A6000140000202DE9F04792B00446894634B195
:103A7000012C64D0022C73D0032C7DD175E00A2078
:103A8000FFF7B9FF0A2804D96FF0080012B0BDE8AB
:103A9000F0873B4890F8540010B96FF06300F5E7E9
:103AA000374890F8C900032802D16FF06300EDE7B2
:103AB00001208DF844000320009000200190022195
:103AC0000291012103910221049104210B912C4ABE
:103AD000D16B5069FCF71AFE06462A49FCF748FEEE
:103AE0000546FDF76BF8801F0F90042009902448CD
:103AF000D0F8B0104FF07E50FCF73AFE82462249D3
:103B0000FCF704FE80461E48C16B4046FCF7F8FDFA
:103B100007461B4841693846FCF7F8FD0646194937
:103B2000FCF726FE0546FDF749F8801F0D90099920
:103B30000A910D990E916846FFF72EFE1DE00A20AE
:103B4000FFF759FF0A2802D96FF008009EE700200E
:103B5000FFF7D0FE0020FFF7CDFE0EE000E00BE007
:103B60000120074981F8C80007E000210120FFF784
:103B700079FFFFF76FFC00E000BF00BF002085E782
:103B80008C20002000007A440000FA432DE9F04721
:103B900005460E463768A846002418E035F824008C
:103BA00080B245F824000C4A55F82400916C0B4A69
:103BB000FDF7ECFB81460848816D4846FCF7D8FDCF
:103BC00082460749FCF7A2FD48F82400641CBC4269
:103BD000E4D30020BDE8F0878C200020C3F5E83F47
:103BE00000247449014619B1034808600020704759
:103BF0006FF00100FBE700008C2000202DE9F84366
:103C000007460C46D4F800800A20FFF7F4FE0A2885
:103C100003D96FF00800BDE8F8830020FFF734FCFB
:103C200000202060FEF726F8054605F4007068B114
:103C30004FF40070FEF706F800F0C6F906460EB124
:103C40003046E8E71D48FFF71FFC00BF05F0007095
:103C5000C8B1FDF7F9FE009038460099FDF7FCFE6B
:103C60004FF00070FDF7EEFF6946384600F0DEF8D1
:103C70001248FFF709FC69463846FFF787FF0098AE
:103C800020600020C7E705F40040A0B1FDF7DCFE8E
:103C900000904FF40040FDF7D5FF38460099FDF73E
:103CA000DBFE69463846FFF771FF0098206000216F
:103CB0000120FFF7D7FE0020ADE70000E5470A002E
:103CC00070B588B005460E4600240A20FFF793FE23
:103CD0000A2803D96FF0080008B070BD02200090D8
:103CE00000208DF805008DF8060001208DF80700F2
:103CF00000208DF8040002906846FFF783F94A48D7
:103D000090F8540018B14848007801282BD115B913
:103D10006FF00100E0E716B96FF00100DCE7424800
:103D2000006C38B94048406C3F49886500213E48E6
:103D3000C16501E000F08CF800203B4981F8540097
:103D400031462846FFF7EAF900F0E6FA04460CB1DE
:103D50002046C1E700F0CAF804460CB12046BBE794
:103D600000203149087000210846FDF75DFE012062
:103D70008DF80C00002006902B48006D0790002065
:103D800004900120059003A8FDF720FE4FF0FF30BE
:103D9000FDF758FF0120244981F8880000F014F94C
:103DA00004460CB1204697E700211F4880F86C10AC
:103DB0006030FFF722FA0120FFF775F91A49086E03
:103DC000FFF78DFA00BF4FF400410120FDF761FFBE
:103DD0000028F8D04FF40040FDF734FF00211248CE
:103DE00080F880107430FFF708FA00210E4880F840
:103DF00098108C30FFF701FA0020FFF754F90021EA
:103E000042F26400FFF710FE0120FFF74CF9FDF7C6
:103E1000CFFC03210020FDF77FFB0120024981F840
:103E20005400002058E700008C20002070B50446A4
:103E30000D46064890F8C800012804D10020FFF77D
:103E400059FD002070BD0020FCE700008C20002000
:103E500070B592B03C2101A8FFF732FB204890F8E2
:103E6000CA00059001200F901D48C06904901C48AD
:103E70008069039001200A9000200B9009200C908B
:103E800000210D9101218DF838101549C8694FF0B6
:103E90008141FCF76DFC06461249FCF769FC0546BA
:103EA0004FF08A41FCF764FC04460F49FCF72EFCF6
:103EB00001900B48006A02900948006C08900020AD
:103EC00009908DF81C0010A901A8FEF70BF9044811
:103ED000DDE91012C0E91612002012B070BD00001A
:103EE0008C2000200000B0410000404010B58AB096
:103EF0000024012005900490324890F84C00009076
:103F00000A200190002002902E4AD1699069FCF7A6
:103F10002FFC069007A96846FDF79AFB0120FFF7E2
:103F2000D7F80420FFF761F901218020FDF7C5FAD9
:103F30004FF47A60FFF706F901210802FDF7BDFA98
:103F4000079921F04040FFF7FDF800214FF4C070C1
:103F5000FDF7B3FA0020FFF748F9FDF72BFD08A99C
:103F600009A8FFF7C3F804460020FFF7B1F82CBBFF
:103F7000142114487430FFF7A3FA1248806E089990
:103F8000084410498968884203D36FF007000AB0DB
:103F900010BD02200B4948670846416E806E0144FF
:103FA000084881670999C0F884100899C167012100
:103FB00080F880107430FFF720F901E02046E6E732
:103FC0000020E4E78C2000202DE9F04F87B04FF06F
:103FD0000009C74A916AD06AFCF792FB4FF0804112
:103FE0000190FCF793FB8346C148D0F8B8105846BF
:103FF000FCF7BEFB0546FCF7E1FDBD4988630846BA
:10400000806B0865084690F8880001285DD1084655
:10401000806BB8490860B6488168806E091AB44858
:10402000C06F0D1A102D04DA6FF0070007B0BDE85D
:10403000F08F083D2846EA1705EB9272911001EBCC
:10404000D1725210AC4B1A60A948816FC06F0844FE
:10405000AA49086018460068096801EB8000A84971
:1040600008600020A7490860A149D1F8B400A6491A
:10407000FCF77EFB9E49C1F8A400D1F8B800A24924
:10408000FCF776FB9A49C1F8A800D1F8A4000021FA
:10409000FCF74AFE04D20120954981F8C00003E0F4
:1040A0000020934981F8C0009149886A9649FCF73D
:1040B0005FFB8F49C1F8AC00002081F8C900C1F84E
:1040C000A00001209149087000BF8A48006808B923
:1040D0000020ABE78748006887490968884201D813
:1040E000012000E000208046B8F1000F02D0814896
:1040F000066801E0804806687E480068801B7D49AC
:1041000008608048006810B97C48006801E07C487D
:10411000006882465446002738E02546241D06A83C
:1041200000F016FB7248B0F8CC00C0F386004FF0E8
:10413000004141EA0060069921F07F410843029066
:104140000A2003907148007810B142F2E81001E0B3
:1041500042F2CC10C0F386004FF0004141EA00600B
:1041600024F07F4141F48021084304906848059081
:10417000042202A92846FEF781FF6448007808B9A6
:10418000012000E00020614908707F1C701EB842C9
:10419000C3D8B8F1000F3DD02546241D06A800F075
:1041A000D7FA5348B0F8CC00C0F386004FF0004176
:1041B00041EA0060069921F07F41084302900A20FD
:1041C00003905248007810B142F2E81001E042F248
:1041D000CC10C0F386004FF0004141EA006024F0AB
:1041E0007F4141F48021084304904948059004220E
:1041F00002A92846FEF742FF2D1D002002900390E1
:1042000004904FF001400590042202A92846FEF7D1
:1042100035FF40E025463B48006810B93848006843
:1042200001E036480068044606A800F091FA3048DC
:10423000B0F8CC00C0F386004FF0004141EA0060C6
:10424000069921F07F41084302900A2003902F48ED
:10425000007810B142F2E81001E042F2CC10C0F355
:1042600086004FF0004141EA006024F07F4141F4B4
:1042700080210843049027480590042202A928467B
:10428000FEF7FCFE2148007808B9012000E000207C
:104290001E49087000BF1B48006808B9012000E0F3
:1042A000002018490860124890F88800F0B10020FA
:1042B0000F4981F88800B8F1000F07D1FFF784FE9D
:1042C0008146B9F1000F01D04846AFE60020084909
:1042D000C1F88C0004210648C0F89410C0F890A0E2
:1042E000002180F898108C30FEF787FF00209DE6B3
:1042F0008C200020682100206C21002060210020FB
:1043000064210020702100209988093F5C21002051
:10431000010000C7010000A770B5A6B0002401206D
:10432000FEF7D6FE00216348FDF7C7F801208DF89F
:1043300080008DF882008DF8810000208DF88C00BF
:104340008DF88B008DF889008DF88A008DF8840037
:104350008DF8830001208DF885008DF886000020FF
:104360008DF8870020A8FEF7ADFD534890F8CA00ED
:10437000199000211D9101218DF87C108DF87D1080
:1043800002211A9104211B914B48016C1C91006C75
:1043900018B94FF40D711E9101E014211E91464889
:1043A00090F8CB0011904FF40060ADF85E00002053
:1043B000ADF860008DF85C00142015900020169078
:1043C00012903D49086B3D49FCF79AF906463C4975
:1043D000FCF7CEF90546FCF7F1FB80B2ADF86000C2
:1043E0003549886A3749FCF7C3F90546FCF7CDFB28
:1043F000BDF8601000EB811080B2ADF85E000120C6
:104400008DF85D0011A8FDF762FE44216846FFF7B4
:1044100057F8294890F8CE000190274890F8CF002F
:1044200000902548806C0290234890F84C0003903F
:104430000121069100218DF81D1001218DF8201019
:104440008DF81C100A210491002105916846FDF7A2
:104450006CFA4FF00140FEF775FE0020FEF738FEC3
:1044600024A925A8FEF742FE0446F4B914211248F7
:104470006030FFF725F8104880682499884203D8F7
:104480006FF0070026B070BD03200B490866084690
:10449000416841662599016724998166012180F868
:1044A0006C106030FEF7A9FE01E02046EAE700202C
:1044B000E8E70000E0FF39008C20002000004843BE
:1044C000998809429988093F70B504460D460D4800
:1044D0000068B0FBF4F600BF0B480168304600F0FE
:1044E00020F80028F8D000BFAC42FDD844EA0520EF
:1044F00040EA0540054908603146002001F01EFCF5
:10450000012070BD1C0000202000002004C30440D6
:1045100010B5002000F014F801210846FFF7D4FF81
:1045200010BD024601EB4103934205D902EB420361
:104530008B4201D9012300E0002318467047000098
:1045400001461C48006800F00300884201D10120A8
:10455000704711B1032929D11FE00EE04CF6143049
:10456000154A10601548D0F8100140F00200121DE5
:1045700010600020114AC2F80C010F48001D0068AD
:1045800000F400700028E9D00A48006820F0030019
:1045900008430A4AC2F8000309E00648006820F010
:1045A00003000843054AC2F8000300E000BF00BF53
:1045B0000120CDE700C304400CC1044000C004400A
:1045C000F0B503460C461546002101261A6800BFC7
:1045D0000CE004EA060038B14F000320B8408243E3
:1045E0004F0005FA07F002437600491C1029F0D36A
:1045F0001A600120F0BD024691830120704710B57A
:10460000034614469A898A4314B142EA010082B2F1
:104610009A81012010BD10B5034614469A888A433A
:1046200014B142EA010082B29A80012010BD10B597
:10463000034614461A898A4314B142EA010082B241
:104640001A81012010BD024611830120704700002D
:1046500010B5034639B9284800689843264C803C79
:10466000C4F8800044E0244800681843224C803C91
:10467000C4F88000B3F5006F1DD004DC082B09D00E
:10468000802B33D10EE0B3F5004F1DD0B3F5801F62
:104690002CD122E0184800681043174C803CC4F825
:1046A000800024E01448006840EA0210124C803C6C
:1046B000C4F880001BE01048006840EA02200E4C5D
:1046C000803CC4F8800012E00B48006840EA0230E9
:1046D000094C803CC4F8800009E00748006840EAC3
:1046E0004250054C803CC4F8800000E000BF00BF91
:1046F0000148006810BD000080C004400146024827
:10470000016001207047000090C0044010B50022F5
:1047100020210E48FFF754FF012220210B48FFF70C
:104720006EFF012220210948FFF781FF002214219A
:104730000648FFF745FF012214210448FFF76BFFED
:10474000002214210148FFF772FF10BD4000024013
:104750002DE9F04106464B4890F8C90030B10128D8
:1047600017D0022830D003283BD139E04549086BE7
:104770004549FBF7C5FF80464449FBF7F9FF07466B
:10478000FCF71CFA3F49C1F8BC00012081F8C900C0
:1047900027E03C48D0F8A0003A49896BB0EB510FB4
:1047A00011D30220374981F8C900486B3649FBF71D
:1047B000A7FF80463549FBF7DBFF0746FCF7FEF90C
:1047C0003049C1F8BC000CE02E48D0F8A0002D49BB
:1047D000896B884203D303202A4981F8C90000E08D
:1047E00000BF00BF2748D0F8A000401C2549C1F8F1
:1047F000A000084690F8C100A0B10A46D2F8A8105F
:10480000D2F8A400FBF77CFF07461E48D0F8AC1096
:104810003846FBF778FF1B49C1F8AC00002081F84F
:10482000C1000CE0174AD2F8A410D2F8AC00FBF794
:1048300015FF1449C1F8AC00012081F8C1001148EE
:10484000D0F8BC50A801FBF7D1FF80460D48D0F846
:10485000AC104046FBF702FF0746FCF7AFF90446F1
:10486000B4EB851F00D2641EB4F5805F01D340F61F
:10487000FF743F2D00D93F2544EA05303060002009
:10488000BDE8F0818C20002000004843998809424F
:1048900000B572B609480A4908600121022000F0FB
:1048A00061FF4FF4E02006491C310860BFF36F8FB1
:1048B000BFF34F8F00F055FF62B600BD000000004F
:1048C00008ED00E038B50024364800F05DF93649BF
:1048D00008703448FBF78FFF3449087008460078A9
:1048E00000F00E00022802D10120314908702F4843
:1048F000007800F00E00042826D12A48808E2D4929
:10490000086000241BE0274800F041F92A4908709C
:104910000846007800909DF800002A2803D1012065
:10492000264908600FE09DF800000A2800D105E044
:10493000012269462248FBF7BDFC00BF641C1D48EC
:1049400000688442DFDB00BF1848007800F00E00EA
:104950000C2826D11348808E1649086000241BE0DD
:10496000104800F014F914490870084600780090C7
:104970009DF800002A2803D10120104908600FE0AB
:104980009DF800000A2800D105E0012269460C4884
:10499000FBF790FC00BF641C064800688442DFDB24
:1049A00000BF38BD00500040082000200920002032
:1049B0000B200020102000200A20002014200020BE
:1049C000B010002010B501224FF440611448FFF7E9
:1049D000F7FD002303224FF4E131124800F024F8E0
:1049E000012280210F4800F0BBF806210D4800F09D
:1049F000BEF807210B4800F0C3F80E2000280DDB9D
:104A000000BF00BF00F01F02012191404209920047
:104A100002F1E022C2F8001100BF00BF00BF10BDCC
:104A200000000240005000402DE9FF4F87B00646CD
:104A30000F469346464C00254648006800F47C59D2
:104A40004FEA2929B9F1000F01D14FF0010941487E
:104A5000001F006800F003000590059830B10128A0
:104A600007D0022813D0032820D11CE03A4C00259F
:104A70001DE03848001F006800F40070B0F5007FAA
:104A800002D1354C002501E0314C00250FE03148C2
:104A90000830006800F01F0004903049049800FBC3
:104AA00001F4E51703E02A4C002500E000BF00BF39
:104AB0000320B0854FF0200A0AFB09F0C117024617
:104AC0000B46CDE9000120462946FBF783FB3A4619
:104AD000FB17CDE90201FBF77DFB0121B0EB0108DB
:104AE0000FFA88F030850AFB09F04FF4006191FB62
:104AF000F0F04FEAE071A0FB042301FB043100FB5E
:104B00000510CDE9002042464FEAE873DDE90001D7
:104B1000FBF760FB3A46FB17CDE90201FBF75AFBB6
:104B20004FF40061401A4FF4084140EA0100B0849C
:104B30004FF00000B0800A9800F03C000BF0030139
:104B400040EA0100B081B08A0BB0BDE8F08F0000F0
:104B50000024F40004C3044080BA8C0140420F00DA
:104B6000034601F0C00010431884188C70470246B9
:104B7000108C08431084108C88431084108C70476C
:104B800002469180012070470146888A704701469D
:104B90000888C0B270470246908A00F0200010B129
:104BA0001180012070470020FCE700000FB4054B86
:104BB00010B503A9044A029800F050FA10BC5DF841
:104BC00014FB0000BD5D0000782100201FB501200E
:104BD0008DF802008DF801008DF800008DF80800B6
:104BE0008DF805008DF8060000208DF80C008DF87A
:104BF0000B008DF80A008DF809008DF804008DF87F
:104C000003008DF807006846FEF75CF91FBD000041
:104C100070B5044600250420FDF714F80121104862
:104C2000FCF74BFC00BF0120FCF796FE042101209D
:104C3000FDF72FF820B10120FEF79CF9054608E0AA
:104C40002068401C10B12068401E206020680028A9
:104C5000E9D100BF00210248FCF72FFC284670BDB7
:104C600000010100490050EAC12018BF04204A0D8C
:104C700018BF40F0010040F2FF72B2EB515F08BF75
:104C800040F00200012808BF0520704730B528B168
:104C9000144C031F002021680A4605E0084630BD79
:104CA0009A4203D810465268002AF9D1002800D051
:104CB00041680BD00468A3EB0005A54204D11B6832
:104CC0001C440346046002E0436000E023603AB104
:104CD0001C68D51AA54203D115682C441C60526883
:104CE0005A6030BD802100202DE9F0414F1E00EBBD
:104CF000C7010446D1E9000115461E4637F00602F9
:104D00000DD02A463346FBF722FE7F1E04EBC70375
:104D1000D3E90023FBF774FD37F00602F1D1022F2F
:104D200025D0042F13D0062F18BFBDE8F0812A46E6
:104D30003346FBF70CFED4E90A23FBF761FD2A4654
:104D40003346FBF704FED4E90823FBF759FD2A4656
:104D50003346FBF7FCFDD4E90623FBF751FD2A4659
:104D60003346FBF7F4FDD4E90423FBF749FD2A465B
:104D70003346FBF7ECFDD4E90223FBF741FD2A465D
:104D80003346FBF7E4FDD4E90023BDE8F041FBF72F
:104D900037BD00002DE9F04782460F4C10480D4EFC
:104DA0000E4F001B4FF0000820F007054FF00109DF
:104DB00000221146504601F06FF8002802D13068F9
:104DC00010B10020BDE8F0873C60C4E90058C6F887
:104DD0000090EDE72C000020CC2100208021002055
:104DE000C82D00200122FCF7E3B8FBF709BD000045
:104DF000024A00201107FCF7DBB8000001FDFFFFAD
:104E000002E008C8121F08C1002AFAD17047704793
:104E1000002001E001C1121F002AFBD170470000F1
:104E200001490860704700008421002000B58DB062
:104E300000212448FCF741FB01208DF824008DF867
:104E400026008DF8250000208DF830008DF82F0009
:104E50008DF82D008DF82E008DF828008DF8270094
:104E60008DF829008DF82A008DF82B0009A8FEF78F
:104E700029F80B20069007900120089006A8FCF75F
:104E800075FA01200090002001900290012003900B
:104E90008DF8100000208DF8110001208DF812000F
:104EA0008DF813008DF814008DF815008DF816009C
:104EB0006846FCF7CCFA01210803FCF7FEFA0DB0B6
:104EC00000BD0000E0FF39002DE9FF5F82B0002146
:104ED000DDE90430020DDDF840B0034318D044F69C
:104EE0001050A2F2FF3242431514119801281FD02E
:104EF000A5EB0B00401C5FEA000A4FF000064E4F86
:104F0000DFF83891B046504615D5CAF1000413E0D9
:104F1000119801244AA3012801D16FEA0B010298DC
:104F2000119AC0E90031C0E9024206B0BDE8F09F25
:104F3000CBF10000DFE704460021404A491842EB6C
:104F40000450CDE9001012E0E00707D032463B469E
:104F500040464946FBF7FBFC8046894632463B46C5
:104F600010461946FBF7F3FC06460F466410002C6A
:104F7000EAD1DDE90401DDE90023BAF1000F06DA28
:104F8000FBF7E5FC42464B46FBF7E1FC05E0FBF78F
:104F900050FD42464B46FBF74CFD04460E460022B0
:104FA000284BFBF783FE03D84FF0FF30014607E0A4
:104FB0000022254B20463146FBF722FCFCF76CF81B
:104FC000102409E0002C0ADB0A220023FBF702F977
:104FD000039B30321A55641E50EA0102F2D1641C60
:104FE000039AC4F111031444119A012A03D0012237
:104FF00008430DD10AE0084304D000204FF0110B04
:10500000119072E7A3EB0B056D1E0DE05B4504DD0F
:105010004FF0000205F1010504E003DA4FF0000251
:10502000A5F10105002AECD002981199C0E90231DE
:10503000C0E9004579E70000000014400000F03F9F
:10504000300000000000F0430000E03F30380A2844
:1050500001D2012070470020704700002DE9FF4F6A
:1050600095B09A46884606460025EEE1252877D178
:1050700000242746F94A0121039400E0044316F86E
:10508000013F203B01FA03F01042F7D130782A2883
:1050900011D06FF02F033078A0F13002092A16D812
:1050A000039A44F0020402EB820203EB4202104432
:1050B000761C0390EFE758F8042B0392002A03DADA
:1050C000504244F40054039044F00204761C3078BB
:1050D0002E2816D116F8010F44F004042A280DD00A
:1050E0006FF02F023078A0F13003092B09D807EBBD
:1050F000870302EB4303C718761CF3E758F8047BD9
:10510000761C30786C280FD006DC4C2817D0682825
:105110000DD06A2814D104E0742810D07A280FD159
:105120000DE044F400140AE044F4801401E044F477
:1051300040147278824202D104F58014761C761CE9
:10514000307866280BD013DC582877D009DC00288B
:1051500075D04528F6D04628F4D047281AD193E1D7
:1051600018E0632835D0642879D0652812D18BE106
:10517000702873D008DC6728F1D069286FD06E28BA
:105180000DD06F2806D1ACE073282CD0752874D0D0
:10519000782853D05246179990476D1C54E1C4F3B8
:1051A0000250022809D003280DD0D8F80010042896
:1051B0000DD00D6008F1040846E1D8F80010EA1798
:1051C000C1E90052F6E7D8F800100D80F2E70D7043
:1051D000F0E718F8041B8DF8001000208DF801008E
:1051E000EB46012003E058F804BB4FF0FF306107A5
:1051F0004FF0000102D40DE009F101018946B942E6
:105200000FDA8145F8DB1BF809100029F4D108E01A
:1052100009F1010189468142FADB1BF809100029D6
:10522000F6D103985346A0EB090721463846179A52
:1052300000F080FA284400EB090507E044E008E1AB
:105240000DE01BF8010B524617999047B9F101097F
:10525000F7D2534621463846179AF2E039E00A2140
:10526000C4F302524FF0000B0091022A06D058F806
:10527000040BC117032A09D00AE023E008F1070054
:1052800020F00702F2E80201904605E000B2C117E3
:10529000042A01D140B2C117002906DA0A460021CA
:1052A000404261EB02012D2202E0220504D52B22AF
:1052B0008DF80420012203E0E20701D02022F7E765
:1052C000914657E00A2100E010214FF0000B0091B9
:1052D0000BE010214FF0000B44F00404082700916C
:1052E00003E008204FF0000B0090C4F30252022AA2
:1052F00005D058F8040B0021032A08D008E008F173
:10530000070020F00702F2E80201904603E080B2B5
:10531000042A00D1C0B24FF0000922072AD5327802
:10532000702A07D0DDF800C08CF0100C5CEA0B0C82
:1053300005D00EE040228DF80420012208E050EA5A
:10534000010306D030238DF804308DF805200222A9
:105350009146009B83F0080353EA0B030AD150EAFD
:10536000010201D1620705D530228DF804204FF0EB
:1053700001097F1E3278582A04D039A20C920CAA57
:1053800002920BE03BA2F9E75B46009AFAF722FF94
:105390000C9B9B5C029A521E0292137050EA01020F
:1053A000F2D1029804A9081A00F1200B600702D577
:1053B00024F4803400E001275F4502DDA7EB0B00F9
:1053C00000E0002000EB0B01009003984944401AD4
:1053D0000390E00306D453462146179A039800F041
:1053E000A9F90544002706E001A85246C05D1799B7
:1053F00090476D1C7F1C4F45F6DBE0030CD55346F0
:105400002146179A039800F095F9054404E03020EE
:105410005246179990476D1C0099481E009000292C
:10542000F5DC08E00298029952460078491C029186
:10543000179990476D1CBBF10001ABF1010BF1DC3A
:105440005BE100F065F90544761C307800287FF4B4
:105450000DAE19B02846BDE8F08F00000928010004
:1054600030313233343536373839616263646566DA
:10547000000000003031323334353637383941429C
:105480004344454600000000600700D4062708F1A9
:10549000070020F00700F0E80223804603F0004CEC
:1054A0005FEA0C0001D097A009E0200501D596A085
:1054B00005E0E00701D095A001E0AFF24C001390A9
:1054C000307823F0004365280CD006DC452809D04D
:1054D00046281DD047287FD13BE0662818D0672892
:1054E0007AD136E00021112F01DB112000E0781C79
:1054F000CDE9000104A90CA8FFF7E6FCDDE90D01E8
:105500000C9A4FF0000B07F10109109200914EE048
:105510004FF000400097CDE9011004A90CA8FFF757
:10552000D3FCDDE90D020C9B0F994FF0000B914667
:105530001093009211B9791C00EB0109B7EB090037
:1055400003D4C0F1FF3B07F10109A9EB070001906B
:1055500042E0012F00DA01270021112F01DD112087
:1055600000E03846CDE9000104A90CA8FFF7ACFC27
:10557000DDE90D010C9A00914FF0000BB946109235
:1055800021070FD4009A4A4503DA914601E0A9F1B8
:105590000109B9F1010F05DD109AA9F10101515C72
:1055A0003029F4D0B84202DA10F1040F03DA0121F5
:1055B000CDE9011010E0002803DC8344A9EB0001D1
:1055C00002E0411C494500DD8946A0EB0B00401C70
:1055D00001904FF000400290200705D40198484503
:1055E00002DB4FF0FF30019000208DF84B00029855
:1055F0000DF14B07B0F1004F25D002200C902B206D
:105600000D90029800280CDA404202902D200D9057
:1056100007E00A210298FBF791FB3031029007F86E
:10562000011D0C99481E0C900029F2DC02980028FC
:10563000EFD1791E0D980870307800F0200040F00E
:10564000450007F8020D11A8C01BC01D0290139859
:10565000007800B1012000EB0901019801EBE07135
:10566000029801440398401A401E0390E00306D4B8
:1056700053462146179A039800F05CF805441398A6
:10568000007818B15246179990476D1CE00323D556
:1056900053462146179A039800F04CF805441BE046
:1056A000BBF1000F07DB0098584504DD10981799EF
:1056B00010F80B0001E017993020524690470198EE
:1056C0000BF1010B401E05F10105019004D12E20C4
:1056D0005246179990476D1CB9F10001A9F10109D3
:1056E000DEDC05E017F8010B5246179990476D1C58
:1056F0000299481E02900029F4DC53462146179A6D
:1057000003989EE62D0000002B0000002000000002
:105710002DE9F041044600251E461746880404D4AE
:1057200005E039462020B0476D1C641EF9D5284697
:10573000BDE8F0812DE9F041044600251E46904663
:10574000C80301D5302700E02027880404D505E0F0
:1057500041463846B0476D1C641EF9D52846BDE861
:10576000F0817047024644F65900094BD860012980
:1057700005D11846406940EA6200586105E00448D6
:10578000406920EA6200024B586100207047000027
:1057900000C004402DE9F84F04460D4621F00040BA
:1057A00000917349814211DC7249884201DC06D1C3
:1057B0002CB120462946BDE8F84FFFF713BB6E48D1
:1057C000002DCCBF6D496E49BDE8F88F6D4981420F
:1057D00011DD6D498142D8BF4FF0FF366DDD2046A7
:1057E0002946FFF73FFA042808BFFFF701FB2046D0
:1057F0002946BDE8F88F6549654F25F0004581428F
:1058000033DD6449814219DD002632464FF0804382
:1058100020462946FAF7F4FF80468A4601222046B0
:105820002946FBF7C5FB00223B46FBF78AF84246B8
:105830005346FBF7FEF804460D463EE001260022E3
:10584000BA463B4620462946FAF7DAFF80460F461D
:105850000022534620462946FBF773F842463B4652
:10586000FBF7E7F804460D4627E04B4981421BDD74
:10587000DFF828A102260022534620462946FBF7DE
:1058800066F800223B46FAF7BBFF80460F4600222F
:10589000534620462946FBF754F842463B46FBF761
:1058A000C8F804460D4608E0032622462B46002091
:1058B0003B49FBF7BEF804460D4622462B461046F0
:1058C0001946FBF744F88B46824602460B46FBF727
:1058D0003EF807460246334888460B460621784480
:1058E000FFF702FA52465B46FBF731F882462E4834
:1058F0008B463A46434605217844FFF7F5F93A4688
:105900004346FBF724F802460B46002E5046594604
:105910000CDAFAF775FF22462B46FBF718F801B0B0
:1059200022462B46BDE8F04FFBF70EB8FAF768FFAA
:1059300022462B46FBF70BF81C4A7A4402EBC603BF
:10594000D3E90023FAF7FDFF22462B46FAF7F9FFC9
:10595000174A7A4402EBC603D3E90023FAF7F4FFAF
:10596000009A002AB8BF81F00041BDE8F88F00001E
:10597000000010440000F07F182D4454FB21F93F33
:10598000FB21F9BF0000DC3F0000203E0000F33F98
:105990000000F03F0000E63F008003400000F83FB9
:1059A0000000F0BF1E150000DC1400007A14000097
:1059B000421400002DE9F04D9446CCF1000423F090
:1059C00000464CEA0404594F46EAD4749A46884685
:1059D00021F00042BC4206D8454240EA050442EAB2
:1059E000D474BC4204D9BDE8F04D6246FFF7FDB95E
:1059F000AAF14055A5F17F6555EA0C040BD00224AD
:105A000004EAAA744A4DDFF82CE144EAD87452EA59
:105A1000000B04D00CE0BDE8F04DFFF7BBBE002C3E
:105A200014BF012CBDE8F08D022C30D0032C32D0F5
:105A300056EA0C0B0AD0BE4220D1BA4209D126F058
:105A4000804622F080423346114617E000291ADBD7
:105A500025E0DFF8E4B0FB44002C04BFDBE90001E3
:105A6000BDE8F08D012C02BFDBE9000181F00041AF
:105A7000BDE8F08D022C0AD0032C0CD0BA4212D112
:105A8000B8F1000F0BDA2A482C49BDE8F08D284602
:105A90002B49BDE8F08D28467146BDE8F08D2448BD
:105AA0002849BDE8F08D921B12153C2AC4BF204F37
:105AB000244E10DCBAF1000FBEBF12F13C0F0027DC
:105AC0003E4608DB6246FAF7B4FF21F00041FFF7DB
:105AD00061FE07460E4694B1012C08BF86F00046D1
